{
  "contractName": "ERC165",
  "abi": [
    {
      "constant": false,
      "inputs": [],
      "name": "initialize",
      "outputs": [],
      "payable": false,
      "stateMutability": "nonpayable",
      "type": "function"
    },
    {
      "constant": true,
      "inputs": [
        {
          "name": "interfaceId",
          "type": "bytes4"
        }
      ],
      "name": "supportsInterface",
      "outputs": [
        {
          "name": "",
          "type": "bool"
        }
      ],
      "payable": false,
      "stateMutability": "view",
      "type": "function"
    }
  ],
  "bytecode": "0x608060405234801561001057600080fd5b5061031d806100206000396000f3fe608060405234801561001057600080fd5b50600436106100365760003560e01c806301ffc9a71461003b5780638129fc1c146100a0575b600080fd5b6100866004803603602081101561005157600080fd5b8101908080357bffffffffffffffffffffffffffffffffffffffffffffffffffffffff191690602001909291905050506100aa565b604051808215151515815260200191505060405180910390f35b6100a8610112565b005b600060336000837bffffffffffffffffffffffffffffffffffffffffffffffffffffffff19167bffffffffffffffffffffffffffffffffffffffffffffffffffffffff1916815260200190815260200160002060009054906101000a900460ff169050919050565b600060019054906101000a900460ff16806101315750610130610212565b5b8061014857506000809054906101000a900460ff16155b61019d576040517f08c379a000000000000000000000000000000000000000000000000000000000815260040180806020018281038252602e8152602001806102c4602e913960400191505060405180910390fd5b60008060019054906101000a900460ff1690506001600060016101000a81548160ff02191690831515021790555060016000806101000a81548160ff0219169083151502179055506101f56301ffc9a760e01b610223565b80600060016101000a81548160ff02191690831515021790555050565b600080303b90506000811491505090565b63ffffffff60e01b817bffffffffffffffffffffffffffffffffffffffffffffffffffffffff1916141561025657600080fd5b600160336000837bffffffffffffffffffffffffffffffffffffffffffffffffffffffff19167bffffffffffffffffffffffffffffffffffffffffffffffffffffffff1916815260200190815260200160002060006101000a81548160ff0219169083151502179055505056fe436f6e747261637420696e7374616e63652068617320616c7265616479206265656e20696e697469616c697a6564a165627a7a723058200869f3bbf893c6cedc74fa51d6ca90bf1255e458eee3e7827b462a9ca2ed76220029",
  "source": "pragma solidity ^0.5.0;\n\nimport \"zos-lib/contracts/Initializable.sol\";\nimport \"./IERC165.sol\";\n\n/**\n * @title ERC165\n * @author Matt Condon (@shrugs)\n * @dev Implements ERC165 using a lookup table.\n */\ncontract ERC165 is Initializable, IERC165 {\n    bytes4 private constant _INTERFACE_ID_ERC165 = 0x01ffc9a7;\n    /**\n     * 0x01ffc9a7 ===\n     *     bytes4(keccak256('supportsInterface(bytes4)'))\n     */\n\n    /**\n     * @dev a mapping of interface id to whether or not it's supported\n     */\n    mapping(bytes4 => bool) private _supportedInterfaces;\n\n    /**\n     * @dev A contract implementing SupportsInterfaceWithLookup\n     * implement ERC165 itself\n     */\n    function initialize() public initializer {\n        _registerInterface(_INTERFACE_ID_ERC165);\n    }\n\n    /**\n     * @dev implement supportsInterface(bytes4) using a lookup table\n     */\n    function supportsInterface(bytes4 interfaceId) public view returns (bool) {\n        return _supportedInterfaces[interfaceId];\n    }\n\n    /**\n     * @dev internal method for registering an interface\n     */\n    function _registerInterface(bytes4 interfaceId) internal {\n        require(interfaceId != 0xffffffff);\n        _supportedInterfaces[interfaceId] = true;\n    }\n\n    uint256[50] private ______gap;\n}\n",
  "sourcePath": "openzeppelin-eth/contracts/introspection/ERC165.sol",
  "compiler": {
    "name": "solc",
    "version": "0.5.8+commit.23d335f2.Emscripten.clang"
  },
  "schemaVersion": "3.0.16",
  "updatedAt": "2019-10-08T14:30:29.873Z",
  "devdoc": {
    "author": "Matt Condon (@shrugs)",
    "details": "Implements ERC165 using a lookup table.",
    "methods": {
      "initialize()": {
        "details": "A contract implementing SupportsInterfaceWithLookup implement ERC165 itself"
      },
      "supportsInterface(bytes4)": {
        "details": "implement supportsInterface(bytes4) using a lookup table"
      }
    },
    "title": "ERC165"
  },
  "userdoc": {
    "methods": {}
  }
}