{
  "contractName": "PoapRoles",
  "abi": [
    {
      "anonymous": false,
      "inputs": [
        {
          "indexed": true,
          "name": "account",
          "type": "address"
        }
      ],
      "name": "AdminAdded",
      "type": "event"
    },
    {
      "anonymous": false,
      "inputs": [
        {
          "indexed": true,
          "name": "account",
          "type": "address"
        }
      ],
      "name": "AdminRemoved",
      "type": "event"
    },
    {
      "anonymous": false,
      "inputs": [
        {
          "indexed": true,
          "name": "eventId",
          "type": "uint256"
        },
        {
          "indexed": true,
          "name": "account",
          "type": "address"
        }
      ],
      "name": "EventMinterAdded",
      "type": "event"
    },
    {
      "anonymous": false,
      "inputs": [
        {
          "indexed": true,
          "name": "eventId",
          "type": "uint256"
        },
        {
          "indexed": true,
          "name": "account",
          "type": "address"
        }
      ],
      "name": "EventMinterRemoved",
      "type": "event"
    },
    {
      "constant": false,
      "inputs": [
        {
          "name": "sender",
          "type": "address"
        }
      ],
      "name": "initialize",
      "outputs": [],
      "payable": false,
      "stateMutability": "nonpayable",
      "type": "function"
    },
    {
      "constant": true,
      "inputs": [
        {
          "name": "account",
          "type": "address"
        }
      ],
      "name": "isAdmin",
      "outputs": [
        {
          "name": "",
          "type": "bool"
        }
      ],
      "payable": false,
      "stateMutability": "view",
      "type": "function"
    },
    {
      "constant": true,
      "inputs": [
        {
          "name": "eventId",
          "type": "uint256"
        },
        {
          "name": "account",
          "type": "address"
        }
      ],
      "name": "isEventMinter",
      "outputs": [
        {
          "name": "",
          "type": "bool"
        }
      ],
      "payable": false,
      "stateMutability": "view",
      "type": "function"
    },
    {
      "constant": false,
      "inputs": [
        {
          "name": "eventId",
          "type": "uint256"
        },
        {
          "name": "account",
          "type": "address"
        }
      ],
      "name": "addEventMinter",
      "outputs": [],
      "payable": false,
      "stateMutability": "nonpayable",
      "type": "function"
    },
    {
      "constant": false,
      "inputs": [
        {
          "name": "account",
          "type": "address"
        }
      ],
      "name": "addAdmin",
      "outputs": [],
      "payable": false,
      "stateMutability": "nonpayable",
      "type": "function"
    },
    {
      "constant": false,
      "inputs": [
        {
          "name": "eventId",
          "type": "uint256"
        }
      ],
      "name": "renounceEventMinter",
      "outputs": [],
      "payable": false,
      "stateMutability": "nonpayable",
      "type": "function"
    },
    {
      "constant": false,
      "inputs": [],
      "name": "renounceAdmin",
      "outputs": [],
      "payable": false,
      "stateMutability": "nonpayable",
      "type": "function"
    },
    {
      "constant": false,
      "inputs": [
        {
          "name": "eventId",
          "type": "uint256"
        },
        {
          "name": "account",
          "type": "address"
        }
      ],
      "name": "removeEventMinter",
      "outputs": [],
      "payable": false,
      "stateMutability": "nonpayable",
      "type": "function"
    }
  ],
  "bytecode": "0x608060405234801561001057600080fd5b5061086a806100206000396000f3fe608060405234801561001057600080fd5b50600436106100885760003560e01c8063704802751161005b57806370480275146101cb5780638bad0c0a1461020f5780639cd3cad614610219578063c4d66de81461026757610088565b806302c37ddc1461008d578063166c4b05146100bb57806324d7806c1461010957806328db38b414610165575b600080fd5b6100b9600480360360208110156100a357600080fd5b81019080803590602001909291905050506102ab565b005b610107600480360360408110156100d157600080fd5b8101908080359060200190929190803573ffffffffffffffffffffffffffffffffffffffff1690602001909291905050506102b8565b005b61014b6004803603602081101561011f57600080fd5b81019080803573ffffffffffffffffffffffffffffffffffffffff1690602001909291905050506102d8565b604051808215151515815260200191505060405180910390f35b6101b16004803603604081101561017b57600080fd5b8101908080359060200190929190803573ffffffffffffffffffffffffffffffffffffffff1690602001909291905050506102f5565b604051808215151515815260200191505060405180910390f35b61020d600480360360208110156101e157600080fd5b81019080803573ffffffffffffffffffffffffffffffffffffffff169060200190929190505050610334565b005b610217610352565b005b6102656004803603604081101561022f57600080fd5b8101908080359060200190929190803573ffffffffffffffffffffffffffffffffffffffff16906020019092919050505061035d565b005b6102a96004803603602081101561027d57600080fd5b81019080803573ffffffffffffffffffffffffffffffffffffffff169060200190929190505050610380565b005b6102b58133610488565b50565b6102c1336102d8565b6102ca57600080fd5b6102d48282610488565b5050565b60006102ee8260336104f590919063ffffffff16565b9050919050565b6000610300826102d8565b8061032c575061032b82603460008681526020019081526020016000206104f590919063ffffffff16565b5b905092915050565b61033d336102d8565b61034657600080fd5b61034f81610587565b50565b61035b336105e1565b565b8161036881336102f5565b61037157600080fd5b61037b838361063b565b505050565b600060019054906101000a900460ff168061039f575061039e6106a8565b5b806103b657506000809054906101000a900460ff16155b61040b576040517f08c379a000000000000000000000000000000000000000000000000000000000815260040180806020018281038252602e815260200180610811602e913960400191505060405180910390fd5b60008060019054906101000a900460ff1690506001600060016101000a81548160ff02191690831515021790555060016000806101000a81548160ff02191690831515021790555061045c826102d8565b61046a5761046982610587565b5b80600060016101000a81548160ff0219169083151502179055505050565b6104ad81603460008581526020019081526020016000206106b990919063ffffffff16565b8073ffffffffffffffffffffffffffffffffffffffff16827fb6882c4d609d560f6d57e78e73dd96027f0d9852739b0b922537a6dd3c8e944c60405160405180910390a35050565b60008073ffffffffffffffffffffffffffffffffffffffff168273ffffffffffffffffffffffffffffffffffffffff16141561053057600080fd5b8260000160008373ffffffffffffffffffffffffffffffffffffffff1673ffffffffffffffffffffffffffffffffffffffff16815260200190815260200160002060009054906101000a900460ff16905092915050565b61059b81603361076490919063ffffffff16565b8073ffffffffffffffffffffffffffffffffffffffff167f44d6d25963f097ad14f29f06854a01f575648a1ef82f30e562ccd3889717e33960405160405180910390a250565b6105f58160336106b990919063ffffffff16565b8073ffffffffffffffffffffffffffffffffffffffff167fa3b62bc36326052d97ea62d63c3d60308ed4c3ea8ac079dd8499f1e9c4f80c0f60405160405180910390a250565b610660816034600085815260200190815260200160002061076490919063ffffffff16565b8073ffffffffffffffffffffffffffffffffffffffff16827fe1bd660d9f7c60e6fb12dd6479fdde12d21fc96385dc7b9b022c0b2f319e739160405160405180910390a35050565b600080303b90506000811491505090565b600073ffffffffffffffffffffffffffffffffffffffff168173ffffffffffffffffffffffffffffffffffffffff1614156106f357600080fd5b6106fd82826104f5565b61070657600080fd5b60008260000160008373ffffffffffffffffffffffffffffffffffffffff1673ffffffffffffffffffffffffffffffffffffffff16815260200190815260200160002060006101000a81548160ff0219169083151502179055505050565b600073ffffffffffffffffffffffffffffffffffffffff168173ffffffffffffffffffffffffffffffffffffffff16141561079e57600080fd5b6107a882826104f5565b156107b257600080fd5b60018260000160008373ffffffffffffffffffffffffffffffffffffffff1673ffffffffffffffffffffffffffffffffffffffff16815260200190815260200160002060006101000a81548160ff021916908315150217905550505056fe436f6e747261637420696e7374616e63652068617320616c7265616479206265656e20696e697469616c697a6564a165627a7a723058200b50a14ae569972e1eb9521d6acbccb7215c9c714e64e15e4829c4f99e99dc3e0029",
  "source": "pragma solidity ^0.5.0;\n\nimport \"zos-lib/contracts/Initializable.sol\";\nimport \"openzeppelin-eth/contracts/access/Roles.sol\";\n\ncontract PoapRoles is Initializable {\n    using Roles for Roles.Role;\n\n    event AdminAdded(address indexed account);\n    event AdminRemoved(address indexed account);\n    event EventMinterAdded(uint256 indexed eventId, address indexed account);\n    event EventMinterRemoved(uint256 indexed eventId, address indexed account);\n\n    Roles.Role private _admins;\n    mapping(uint256 => Roles.Role) private _minters;\n\n    function initialize(address sender) public initializer {\n        if (!isAdmin(sender)) {\n            _addAdmin(sender);\n        }\n    }\n\n    modifier onlyAdmin() {\n        require(isAdmin(msg.sender));\n        _;\n    }\n\n    modifier onlyEventMinter(uint256 eventId) {\n        require(isEventMinter(eventId, msg.sender));\n        _;\n    }\n\n    function isAdmin(address account) public view returns (bool) {\n        return _admins.has(account);\n    }\n\n    function isEventMinter(uint256 eventId, address account) public view returns (bool) {\n        return isAdmin(account) || _minters[eventId].has(account);\n    }\n\n    function addEventMinter(uint256 eventId, address account) public onlyEventMinter(eventId) {\n        _addEventMinter(eventId, account);\n    }\n\n    function addAdmin(address account) public onlyAdmin {\n        _addAdmin(account);\n    }\n\n    function renounceEventMinter(uint256 eventId) public {\n        _removeEventMinter(eventId, msg.sender);\n    }\n\n    function renounceAdmin() public {\n        _removeAdmin(msg.sender);\n    }\n\n    function removeEventMinter(uint256 eventId, address account) public onlyAdmin {\n        _removeEventMinter(eventId, account);\n    }\n\n    function _addEventMinter(uint256 eventId, address account) internal {\n        _minters[eventId].add(account);\n        emit EventMinterAdded(eventId, account);\n    }\n\n    function _addAdmin(address account) internal {\n        _admins.add(account);\n        emit AdminAdded(account);\n    }\n\n    function _removeEventMinter(uint256 eventId, address account) internal {\n        _minters[eventId].remove(account);\n        emit EventMinterRemoved(eventId, account);\n    }\n\n    function _removeAdmin(address account) internal {\n        _admins.remove(account);\n        emit AdminRemoved(account);\n    }    \n\n    // For future extensions\n    uint256[50] private ______gap;\n}",
  "sourcePath": "/home/amxx/Work/subgraphs/poap/eth/contracts/PoapRoles.sol",
  "compiler": {
    "name": "solc",
    "version": "0.5.8+commit.23d335f2.Emscripten.clang"
  },
  "schemaVersion": "3.0.16",
  "updatedAt": "2019-10-08T14:30:29.870Z",
  "devdoc": {
    "methods": {}
  },
  "userdoc": {
    "methods": {}
  }
}